:1000000062C02EC37BC0C3C1D7C1EBC1FFC113C245
:1000100027C23BC24FC263C277C28BC29FC2B3C268
:10002000C7C2DBC2EFC2504F52540044445200508A
:10003000494E006364632D696F00090243000201A9
:100040000000320904000001020201000524001032
:10005000010424020205240600010524010301070E
:100060000583030800FF09040100020A00000007DD
:1000700005010208000007058102080000120110B6
:100080000102000008C016E1050001010200011094
:10009000035500530042002D00500049004F00223C
:1000A000037700770077002E00720065006300750B
:1000B000007200730069006F006E002E006A00700D
:1000C00000040309040011241FBECFE5D4E0DEBF05
:1000D000CDBF10E0A0E6B0E0E4E0FDE002C0059096
:1000E0000D92AC36B107D9F721E0ACE6B0E001C023
:1000F0001D92AA3CB207E1F753D502C681CFE09129
:10010000790191E09E0F90937901F0E0E059FF4F63
:1001100080830895FC018381813049F48DE790E06C
:100120009093A3018093A20180917D0008958AE3BA
:1001300090E09093A3018093A20183E40895FC01D1
:100140009081892F8076803211F080E0089581813E
:1001500020EE280F223078F0823239F480917E012F
:10016000811103C082E080937E0197FDEECF81E094
:1001700080937F01EACF8FEF0895DC0197E0E0E8FC
:10018000F1E001900D929A95E1F787E00895FC0166
:1001900097E0A0E8B1E001900D929A95E1F781E037
:1001A0000895AF92BF92DF92EF92FF920F931F9349
:1001B000CF93DF93E62E2FEF2093A401EC0104E40C
:1001C00010E090E2D92E8991E0917A018132ECF031
:1001D0009FE9980F9A3108F48052AE2FB0E0A059F1
:1001E000BE4F8C93EF5FE770E0937A01EA94E110E1
:1001F000EACF1092A401DF91CF911F910F91FF9050
:10020000EF90DF90BF90AF900895EE2379F3E13047
:1002100009F05EC0E0917D01F0E0809170018F33C4
:1002200061F17CF4863209F43FC08D33B9F1843238
:1002300009F04CC0F89480917C01808380917B010F
:1002400030C08E3509F43CC08C37A1F1803409F000
:100250003DC083E3A82E80E0B82EF5018491FFEF26
:10026000AF1ABF0A811107C08DE049DF8AE047DF7E
:1002700010927A01BBCF43DFF0CFF0808F2D8295B3
:100280008F708A3008F0895F805D39DF8F2D8F7025
:100290008A3008F0895F805D32DFE6CFF894809184
:1002A0007C0180837894E0CFF894808190917C01E8
:1002B0008923F7CFF894808190917C01892BF1CF2D
:1002C000F894808190917C018927EBCF81E2E4CF83
:1002D000E23001F580917C0180937B0180917D016A
:1002E00080937C019091700120ED290F2A3010F04D
:1002F00029EC290F80E1289F900111249091710130
:1003000080ED890F8A3010F089EC890F822B809361
:100310007D01AECFE33009F469CF80917C018093F9
:100320007B0180917D0180937C01E150E0937A0113
:10033000F0E0E059FE4F80819801281B310987FDCC
:100340003395F22EFF0CF20E80E38F0D80937D012A
:1003500010826FE270E080E791E0C9D4892B09F444
:1003600087CF6BE270E080E791E0C1D4892B19F46C
:1003700081E38F0DCCCF66E270E080E791E0B7D4E7
:10038000892B11F482E3F5CFD0927D0171CF1F92BA
:100390000F920FB60F9211248F93EF93FF93ECE619
:1003A000F0E0808180618083FF91EF918F910F90C9
:1003B0000FBE0F901F9018951F920F920FB60F92BD
:1003C00011248F93EF93FF93ECE6F0E0808180623D
:1003D0008083FF91EF918F910F900FBE0F901F9030
:1003E00018951F920F920FB60F9211248F93EF93CF
:1003F000FF93ECE6F0E0808180648083FF91EF91D1
:100400008F910F900FBE0F901F9018951F920F9213
:100410000FB60F9211248F93EF93FF93ECE6F0E069
:10042000808180688083FF91EF918F910F900FBE44
:100430000F901F9018951F920F920FB60F921124D4
:100440008F93EF93FF93ECE6F0E0818181608183ED
:10045000FF91EF918F910F900FBE0F901F90189505
:100460001F920F920FB60F9211248F93EF93FF9369
:10047000ECE6F0E0818182608183FF91EF918F91C2
:100480000F900FBE0F901F9018951F920F920FB6EE
:100490000F9211248F93EF93FF93ECE6F0E08181AC
:1004A00084608183FF91EF918F910F900FBE0F9029
:1004B0001F9018951F920F920FB60F9211248F93D1
:1004C000EF93FF93ECE6F0E0818188608183FF91F8
:1004D000EF918F910F900FBE0F901F9018951F9264
:1004E0000F920FB60F9211248F93EF93FF93ECE6C8
:1004F000F0E0818180618183FF91EF918F910F9076
:100500000FBE0F901F9018951F920F920FB60F926B
:1005100011248F93EF93FF93ECE6F0E081818062EA
:100520008183FF91EF918F910F900FBE0F901F90DD
:1005300018951F920F920FB60F9211248F93EF937D
:10054000FF93ECE6F0E0818180648183FF91EF917D
:100550008F910F900FBE0F901F9018951F920F92C2
:100560000FB60F9211248F93EF93FF93ECE6F0E018
:10057000818180688183FF91EF918F910F900FBEF1
:100580000F901F9018951F920F920FB60F92112483
:100590008F93EF93FF93ECE6F0E08281816082839A
:1005A000FF91EF918F910F900FBE0F901F901895B4
:1005B0001F920F920FB60F9211248F93EF93FF9318
:1005C000ECE6F0E0828182608283FF91EF918F916F
:1005D0000F900FBE0F901F9018951F920F920FB69D
:1005E0000F9211248F93EF93FF93ECE6F0E082815A
:1005F00084608283FF91EF918F910F900FBE0F90D7
:100600001F9018951F920F920FB60F9211248F937F
:10061000EF93FF93ECE6F0E0828188608283FF91A4
:10062000EF918F910F900FBE0F901F901895A82FEC
:10063000B92F80E090E041E050EA609530E009C0D9
:100640002D9182279795879510F084279527305E06
:10065000C8F36F5FA8F30895EADF8D939D93089523
:10066000CF93CFB7CF93C395839BE9F7839B09C003
:10067000839B07C0839B05C0839B03C0839B01C0F2
:10068000A6C0DF93C091A101DD27C855DE4F839B33
:1006900002C0DF91EBCF2F930F931F9300B32FEF87
:1006A00003FB20F94F933F9310B34FEF012703FB58
:1006B00021F93BE031C04E7F012F10B3216028C0EB
:1006C000102F4D7F2260000000B329C04B7F2460B3
:1006D000012F000010B32BC010B3477F28602AC041
:1006E0004F7E00B320612CC04F7D10B320622FC01D
:1006F0004F7B00B3206432C0422700B349934FEFD1
:100700000000102713FB20F910B31C70C9F1297FDA
:1007100091F2012703FB21F900B3237F89F23150C5
:1007200058F1102713FB22F910B3277E79F2012725
:1007300003FB23F92F7C81F200B3102713FB24F96C
:100740002F7971F200C010B3012703FB25F92F7335
:1007500059F200C000B3102713FB26F9223040F2F3
:1007600000C010B3012703FB27F9243028F64F7788
:10077000206810B30000F9CF10E41ABF00271CC096
:100780003B503195C31BD04010E41ABF0881033C95
:1007900011F10B3401F120919F011981110F1213F6
:1007A000EDCF4A81441F093659F10D3211F0013E57
:1007B00029F74F7009F0042F0093A6013F914F9144
:1007C0001F910F912F91DF91CAB7C6FD4CCFCF91EA
:1007D000CFBFCF9118952091A601222379F31091D4
:1007E000A4011123C1F53430C2F13093A401209348
:1007F000A0011091A1013BE0311B3093A1012DC05C
:100800000091A40101303CF50AE54F7049F43091A4
:100810006B0034FD24C000936B00C8E8D1E023C016
:10082000433049F03091930134FD19C00093930196
:10083000C4E9D1E018C03091BE0134FD10C000936E
:10084000BE01CFEBD1E00FC02795A8F45150A9F419
:10085000220F0000F9CF4AE503C042ED01C0432F4B
:10086000C4E1D0E032E011B31C60939A11BB02B333
:1008700020E41CE05F93012756E002BB279520F49B
:10088000515021F4220FF9CF012756E000003B5AC6
:1008900002BBD0F2279528F4515029F4220F000012
:1008A000F9CF012756E0279502BB20F4515021F4DF
:1008B000220FF9CF012756E02991332302BB21F6FD
:1008C000037F1091A501110FC651D04002BB11F05A
:1008D00010939F0110E41ABF086011B3137F402FDB
:1008E000437F5F9100C000C002BB11BB42BB66CF1B
:1008F0001F93CF93DF93162FEA01288124FF16C0A0
:10090000298138E823272983212FFC01CE01029673
:10091000DC0131913D9321501216DCF3612F9CDEF6
:100920001C5F1883DF91CF911F9108952AE52883DA
:10093000EBCF43E951E0DCCF4EEB51E0D9CFCF9381
:10094000DF936091A401635067FD15C08091A10100
:10095000CCE0D0E0C81BD109C855DE4F8091A00182
:10096000803108F044C0CE011CDC8091A40118162F
:1009700014F41092A40180916B0084FF2BC0C091ED
:100980006A00CF3F39F16C2FC93008F068E08C2F36
:10099000861B80936A008091880198E8892780935C
:1009A0008801CC2359F08091870187FFBCC089E87A
:1009B00091E0E3DBC82F893008F0DAC06C2F89E8BA
:1009C00091E04ADECC5FCC3019F08FEF80936A0063
:1009D000C0936B0084E196B39C7031F48150D9F7D9
:1009E0001092A50110929F01DF91CF9108958D3251
:1009F00009F087C0683009F0B8CF83EC8093880194
:100A00008AE580936B00109287018881807669F077
:100A1000CE0195DB8F3FC1F4988197FD8E8190E8E0
:100A20009093870180936A00A0CF2A811092910150
:100A30009981911111C01092920121E931E082E077
:100A40003093A3012093A2019F819111EBCF9E814E
:100A5000981740F7892FE6CF953029F42093A50108
:100A600021E931E0EDCF963099F59B81913059F431
:100A70008DE790E09093A3018093A20182E190E43E
:100A800090938701C7CF923019F4CE0143DBF7CFA3
:100A90009330A9F7211108C081EC90E09093A30155
:100AA0008093A20184E0EBCF213041F48FE990E004
:100AB0009093A3018093A20182E2E1CF2230F9F664
:100AC0008FE890E09093A3018093A20180E1D7CFBB
:100AD000983081F0993019F42093A701C1CF9A3052
:100AE00069F09B3009F0BCCF9BE490939401909304
:100AF000BF01B6CF27EA31E081E0A2CF21E931E0A2
:100B0000FBCF8091870187FF30CFCE0140DB8F3F45
:100B100021F48EE180936B0028CF882309F425CF40
:100B200010926A0022CF4091A2015091A30186FF4A
:100B300016C0A9E8B1E0FA01962F84918D93319601
:100B40009150D9F72FEF260F30E02F5F3F4F240F42
:100B5000351F3093A3012093A201C62F2FCFDA01B6
:100B6000E9E8F1E0962F8D9181939150E1F7EACF7A
:100B70008FEF80936A00CEE12BCF85B7826085BF6F
:100B80008BB780648BBFA3E9B1E08BE411968C93A3
:100B90001197EEEBF1E081838AE58C9380830895D1
:100BA00088E19EE00FB6F894A89581BD0FBE91BD77
:100BB00083EF82BB8CE081BB84E1A895E7ECFFEA80
:100BC0003197F1F700C000008150B9F711BAD5DFB5
:100BD00010927E0110927F0110927A011092790199
:100BE00010927801789401E010E0A895A8DE809139
:100BF000930184FF0AC0C091790180917801C813E4
:100C000019C090917F01911117C0C4E09C2F969557
:100C100096959695E92FF0E0E459FF4F2081211138
:100C200027C0C92FCC0FCC0FCC0FC95FCF5FC43109
:100C300068F344C0C817C8F0C81BDC2FC93008F0DF
:100C4000D8E090E06D2F80599F4F73DE809178013E
:100C5000D80FD0937801C83020F081E090917901CD
:100C60009D1380E080937F01D0CFC82FC195E5CF41
:100C70003C2F3770822F90E0032E02C09595879508
:100C80000A94E2F780FFD2CFC80101C0880F3A95DD
:100C9000EAF78095822380838CE531DA8C2F829568
:100CA0008F70805D2CDA8C2F8F708A3008F0895F0E
:100CB000805D25DA8DE023DA8AE021DA80917E01F9
:100CC000882309F492CF9091BE0194FF8ECF823099
:100CD00051F468E080E690E02FDE80917E01815043
:100CE00080937E0182CF62E088E690E0F5CFFB0141
:100CF000DC018D91059080190110D9F3990B0895AD
:040D0000F894FFCF95
:0C0D0400A1200000000002000300FF5AC4
:00000001FF
